:100000000C942A000C9447000C9447000C94470071
:100010000C9447000C9447000C9447000C94470044
:100020000C9447000C9447000C9447000C94470034
:100030000C9447000C9447000C9447000C94470024
:100040000C9447000C9447000C9447000C94470014
:100050000C94470011241FBECFE5D4E0DEBFCDBF16
:1000600010E0A0E6B0E0ECECF3E002C005900D92E9
:10007000A03AB107D9F710E0A0EAB0E001C01D92A4
:10008000A73AB107E1F70E946E010C94E5010C94C8
:1000900000001092A1002091A00090E002C09F5F9C
:1000A0002BE09817E0F32093A0009093A10008950F
:1000B000AA9888EC0E944900AA9A88EC0E944900FC
:1000C000AA9808950F931F93082F85B3887F85BB47
:1000D000802F807F85BB0E94580011270F70107001
:1000E00084E0000F111F8A95E1F705BB0E945800BC
:1000F0001F910F9108951F93182F81E085BB15BAAA
:10010000812F807F816085BB0E9458001295107FEF
:10011000116015BB0E9458001F910895EF92FF9245
:100120000F931F93CF93DF937C0181E085BB15BABA
:1001300000E010E014C0903119F480EC0E946200DD
:100140008881807F816085BB0E945800888182956C
:10015000807F816085BB0E9458000F5F1F4F902FEA
:10016000E701C00FD11D8881882329F7DF91CF9146
:100170001F910F91FF90EF900895DF92EF92FF9201
:100180000F931F93D82E64E60E94B201282F94E6A5
:10019000E92E8E9D700111248D2D99278E199F09AE
:1001A0006AE070E00E94BE018B01822F805D0E9498
:1001B0007B00802F805D0E947B00DE188AE0089F14
:1001C000C0011124D81A8D2D805D0E947B001F91E3
:1001D0000F91FF90EF90DF900895882329F4862FE8
:1001E00080580E9462000895813021F4862F805447
:1001F0000E946200089509C020E030E000002F5FF7
:100200003F4F4CE02C3C3407C9F701972FEF8F3F4D
:10021000920791F7089584E190E00E94FB0085B376
:100220008093A2008FEF84BB8FE090E00E94FB00E0
:1002300080E285BB81E00E94620082E00E94620051
:1002400080E80E94620084E190E00E94FB00089533
:1002500081E00E94620008951092A6001092A5000D
:1002600020E030E040E050E000000000000000002E
:10027000000000000000000000000000000000007E
:100280004F5F5F4F63E04132560771F72F5F3F4F7B
:100290008217930738F73093A6002093A500509358
:1002A000A4004093A30008951092A6001092A50008
:1002B00020E030E00000000000000000000000002E
:1002C00000000000000000002F5F3F4F82179307DF
:1002D00088F73093A6002093A50008951ABA1BBA98
:1002E00080EF87BB18BA0E940B0161E080E00E949A
:1002F000ED0080E690E00E948E00CD9909C080E874
:1003000088BB61E080E00E94ED008AE690E0F3CFD8
:10031000CA9909C080EA88BB61E080E00E94ED00D4
:1003200084E790E0E8CFC99909C080E288BB61E02A
:1003300080E00E94ED008EE790E0DDCF18BA61E02A
:1003400080E00E94ED0089E890E00E948E0084E643
:1003500090E00E942C0161E080E00E94ED0084E9C1
:1003600090E0C9CF991B79E004C0991F961708F057
:10037000961B881F7A95C9F78095089597FB092EDB
:1003800007260AD077FD04D00CD006D000201AF43E
:10039000709561957F4F0895F6F7909581959F4FE1
:1003A0000895AA1BBB1B51E107C0AA1FBB1FA617BC
:1003B000B70710F0A61BB70B881F991F5A95A9F70E
:0C03C00080959095BC01CD010895FFCF01
:1003CC0073686F772068616E64006C656674207466
:1003DC0075726E00466F72776172642020007269CC
:1003EC00676874207475726E0073746F70202020AF
:1003FC002020200073686F772068616E64200000F5
:00000001FF
